:020000040800F2
:10000000000003209D040008392100084721000852
:100010004D2100085321000859210008000000006C
:100020000000000000000000000000005F21000848
:100030006D210008000000007B21000889210008D4
:10004000F1040008F1040008F1040008252200086A
:10005000F1040008F104000817220008F104000868
:10006000F1040008F104000809220008F104000866
:10007000F1040008F104000895210008F1040008CB
:10008000F1040008F1040008F1040008F10400087C
:10009000F1040008F1040008F1040008F10400086C
:1000A000F1040008F1040008F1040008F10400085C
:1000B000F1040008F1040008F1040008F10400084C
:1000C000F1040008F1040008F1040008F10400083C
:1000D000A9210008BD210008F1040008F10400086E
:1000E000F1040008F1040008F1040008F10400081C
:1000F000D1210008DD210008E9210008F1040008F1
:10010000F1040008F1040008F1040008F1040008FB
:10011000F1040008F1040008F1040008F1040008EB
:10012000F1040008F1040008F5210008F1040008BA
:0C013000F1040008F1040008F1040008CC
:10013C0010B5054C237833B9044B13B10448AFF315
:10014C0000800123237010BD7C0100200000000002
:10015C0098A1000808B5034B1BB103490348AFF342
:10016C00008008BD000000008001002098A100085C
:10017C00034613F8012B002AFBD1181A01387047DB
:10018C0053B94AB9002908BF00281CBF4FF0FF31F2
:10019C004FF0FF3000F06EB9ADF1080C6DE904CEF4
:1001AC0000F006F8DDF804E0DDE9022304B0704746
:1001BC002DE9F047089D04468C46002B40F08380C7
:1001CC008A42174647D9B2FA82F242B1C2F12000F4
:1001DC0024FA00F09140974040EA010C94404FEA19
:1001EC001748230CBCFBF8F61FFA87FE08FB16C158
:1001FC0043EA014306FB0EF1994209D9FB1806F1BB
:10020C00FF3080F01981994240F21681023E3B4446
:10021C005B1AA4B2B3FBF8F008FB103344EA0344B6
:10022C0000FB0EFEA64509D93C1900F1FF3380F006
:10023C000581A64540F2028102383C4440EA064062
:10024C00A4EB0E0400261DB1D4400023C5E90043E5
:10025C003146BDE8F08702B9FFDEB2FA82F2002A1D
:10026C0050D1CB1B4FEA174E1FFA87F80126B3FB70
:10027C00FEFC210C0EFB1C3341EA034108FB0CF382
:10028C008B4207D979180CF1FF3002D28B4200F265
:10029C00E9808446C91AA3B2B1FBFEF00EFB101123
:1002AC0043EA014408FB00F8A04507D93C1900F1CA
:1002BC00FF3302D2A04500F2D9801846A4EB080403
:1002CC0040EA0C40BFE78B4209D9002D00F0B18009
:1002DC000026C5E9000130463146BDE8F087B3FA87
:1002EC0083F6002E4AD18B4202D3824200F2B880B0
:1002FC00841A61EB030101208C46002DA8D0C5E9BE
:10030C00004CA5E7C2F1200320FA03F6974001FA4E
:10031C0002F04FEA174ED9403043030CB1FBFEF606
:10032C001FFA87F80EFB161143EA014306FB08F18E
:10033C00994204FA02F409D9FB1806F1FF3C80F04B
:10034C008D80994240F28A80023E3B445B1A81B216
:10035C00B3FBFEF00EFB103341EA034100FB08F344
:10036C008B4207D9791800F1FF3C73D28B4271D9BB
:10037C0002383944CB1A40EA064678E7C6F1200C1D
:10038C0003FA06F422FA0CF31C4320FA0CF701FAD8
:10039C0006F34FEA144E21FA0CF11F433B0CB1FB50
:1003AC00FEF91FFA84F80EFB191143EA014109FB0F
:1003BC0008FA8A4502FA06F200FA06F308D961181F
:1003CC0009F1FF3048D28A4546D9A9F102092144E6
:1003DC00A1EB0A01BFB2B1FBFEF00EFB101147EA14
:1003EC00014700FB08F8B84507D9E71900F1FF31C0
:1003FC002ED2B8452CD90238274440EA0940A7EB45
:10040C000807A0FB02894F45C64649461AD317D0A8
:10041C005DB1B3EB0E0267EB010707FA0CFCF2407F
:10042C004CEA0202F740C5E9002700263146BDE838
:10043C00F0872E4628460BE70646E9E61846FDE609
:10044C004345E5D2B8EB020E69EB04010138DFE756
:10045C000846D2E760468DE78146B9E7664675E700
:10046C0030464AE7ACF1020C394413E702383C44FD
:10047C0024E700BF704700BFD458C4500433C418DD
:10048C008C42F9D37047036004308842FBD3704729
:10049C000C4885460C480D490D4A0023FFF7EFFF29
:1004AC000C480D490023FFF7F0FF0C480C490023C2
:1004BC00FFF7EBFF02F07EFD09F068F901F06AFA34
:1004CC00FEE7000000000320040000209400002040
:1004DC0050A500087C01002064150020E0010320D9
:1004EC00570A0320FEE7000080B483B000AF7860A9
:1004FC00064BD3F8902005497B681343C1F8903024
:10050C0000BF0C37BD465DF8047B704700080058EF
:10051C0080B485B000AF78604FF0B043DA6C4FF028
:10052C00B0417B681343CB644FF0B043DA6C7B680B
:10053C001340FB60FB6800BF1437BD465DF8047BBD
:10054C00704780B485B000AF78604FF0B043D3F8FB
:10055C004C214FF0B0417B681343C1F84C314FF044
:10056C00B043D3F84C217B681340FB60FB6800BFA1
:10057C001437BD465DF8047B704780B500AF02F0C0
:10058C0021FE02F025FE4FF48030FFF7ADFF08F09E
:10059C0033F900F021F800F0C3F800BF80BD000073
:1005AC00B0B588B000AF0B4B3C1D1D460FCD0FC432
:1005BC0095E8070003C422800234130C237008F062
:1005CC0057F83B1D184607F04AFC00BF2037BD46C4
:1005DC00B0BD00BFB0A1000880B588B000AF3B1D16
:1005EC0000221A605A609A60DA601A610023BB8399
:1005FC0000237B8300233B830023FB7738E0FB7FC6
:10060C00444ADB0013449B79002B2BD0FB7F414ADF
:10061C0052F83330404A93421BD03F4A934223D87E
:10062C00B3F1904F03D03D4A934209D01CE0FB7FBD
:10063C00384ADB0013449A88BB8B1343BB8314E00A
:10064C00FB7F344ADB0013449A887B8B13437B83F8
:10065C000BE0FB7F2F4ADB0013449A883B8B134340
:10066C003B8302E000BF00E000BFFB7F0133FB7760
:10067C00FB7F212BC3D90023FB600123BB60032329
:10068C003B61BB8B002B14D0BB8B7B600120FFF735
:10069C003FFF0120FFF755FF3B1D19464FF09040DF
:1006AC0003F00AFCBB8B002219464FF0904003F07C
:1006BC0073FD7B8B002B12D07B8B7B600220FFF7B2
:1006CC0027FF0220FFF73DFF3B1D1946134803F09F
:1006DC00F3FB7B8B00221946104803F05DFD3B8B2E
:1006EC00002B13D03B8B7B600420FFF711FF042001
:1006FC00FFF727FF3B1D1946074803F0DDFB3B8B3B
:10070C0000221946044803F047FD00BF00BF203704
:10071C00BD4680BDB8A2000800080048000400488F
:10072C0080B400AF00BFBD465DF8047B704780B558
:10073C0000AF01F0E9F900BF80BD80B584B000AF17
:10074C00F8600B467A607B817A897B68F9680020B7
:10075C0000F026FF00BF1037BD4680BD80B483B0CB
:10076C0000AF7860074BD3F8803023F007020549BF
:10077C007B681343C1F8803000BF0C37BD465DF871
:10078C00047B70470004005880B483B000AF7860DD
:10079C004FF0B0439B6823F400424FF0B0417B68AC
:1007AC0013438B6000BF0C37BD465DF8047B70476C
:1007BC0080B500AF00F014F80849002000F0E8FC08
:1007CC00FFF7DBFE0121012008F0CEF800F067F8FE
:1007DC0000F075F800F012F800BF80BDCC140020BA
:1007EC0080B500AF4FF40040FFF7CEFF08F0AAF839
:1007FC000420FFF7B3FF00BF80BD000080B588B0B8
:10080C0000AF07F07FFD114A0021042008F0C0F969
:10081C000F4B3B600F4B7B603B4619460E4807F075
:10082C0035FB0E4BBB600E4BFB600E4B3B6140F23D
:10083C003C537B6107F10803184607F0A5FE07F04F
:10084C005BFD00BF2037BD4680BD00BFD17E0008D8
:10085C0024070320750800088B0800083C090320B6
:10086C0030080320E801032080B483B000AF0346B6
:10087C00FB7100BF0C37BD465DF8047B704780B53B
:10088C0082B000AF7860FFF78BFE01F083FD002192
:10089C00012008F069F800BF0837BD4680BD80B55F
:1008AC0000AF002002F0C0FA012002F0BDFA0220D5
:1008BC0002F0BAFA012002F0F1FA00BF80BD80B557
:1008CC0000AF0121002002F003FB00BF80BD80B40B
:1008DC0000AF00BFBD465DF8047B704780B582B0A9
:1008EC0000AF786039604FF0FF3008F06DF800BF52
:1008FC000837BD4680BD80B582B000AF786000215E
:10090C00042008F067F900BF0837BD4680BD80B5EC
:10091C0082B000AF7860022008F0C8F900BF083739
:10092C00BD4680BD80B582B000AF7860022008F073
:10093C00DDF900BF0837BD4680BD000080B483B030
:10094C0000AF7860064BD3F8802005497B681343D1
:10095C00C1F8803000BF0C37BD465DF8047B704792
:10096C000008005880B483B000AF7860054B1A685B
:10097C0004497B6813430B6000BF0C37BD465DF820
:10098C00047B70470008005880B483B000AF0D4B57
:10099C009B6A9BB27B600B4B9B6A9BB23B6005E0F6
:1009AC003B687B60074B9B6A9BB23B607A683B68F9
:1009BC009A42F5D13B6818460C37BD465DF8047B6E
:1009CC00704700BF0028004080B485B000AF0346DC
:1009DC000A46FB711346BB71BA791D4913465B007D
:1009EC001344DB000B4415331B78FB73FB7B062B8A
:1009FC0009D0FA7B164913465B001344DB000B4409
:100A0C001433FA791A70FA79114913465B001344BE
:100A1C00DB000B441533FA7B1A70FA790C49134638
:100A2C005B001344DB000B441433BA791A70BA79A7
:100A3C00074913465B001344DB000B441533FA796A
:100A4C001A7000BF1437BD465DF8047B704700BFB9
:100A5C009400002080B485B000AF03460A46FB71B9
:100A6C001346BB71294B1B78DBB2BA799A4232D050
:100A7C00BA79274913465B001344DB000B4414334B
:100A8C001B78FB73FA7B224913465B001344DB0093
:100A9C000B441533FA791A70FA791D4913465B0029
:100AAC001344DB000B441533BA791A70FA791849E0
:100ABC0013465B001344DB000B441433FA7B1A70AF
:100ACC00BA79134913465B001344DB000B4414330F
:100ADC00FA791A7014E0FA790D4913465B00134445
:100AEC00DB000B441533BA791A70BA7908491346EE
:100AFC005B001344DB000B441433FA791A7000BF0B
:100B0C001437BD465DF8047B704700BF24010020FC
:100B1C009400002080B584B000AF0346FB714E4BAF
:100B2C001B78DBB2062B18D14B4B1B78DAB24B4B34
:100B3C001A70494AFB791370FA79494913465B00DC
:100B4C001344DB000B44153306221A70454B4FF04F
:100B5C00FF321A600023FB8178E000F009F90346AC
:100B6C00FB81FA793E4913465B001344DB000B44CE
:100B7C0008331968FB89FA791944394813465B0024
:100B8C001344DB00034408331960FA7934491346E3
:100B9C005B001344DB000B4408331B68BB602E4B1B
:100BAC001B78DBB219462E4A0B465B000B44DB006C
:100BBC00134408331B68BA689A4237D3264B1B7808
:100BCC007B737A7B264913465B001344DB000B4492
:100BDC0015331B783B7313E07A7B214913465B007A
:100BEC001344DB000B4415331B787B737A7B1C4955
:100BFC0013465B001344DB000B4415331B783B732B
:100C0C003B7B062B0BD03A7B154913465B001344F8
:100C1C00DB000B4408331B68BA689A42DCD27A7B3F
:100C2C00FB7911461846FFF7CFFE0FE00A4B1B78F5
:100C3C00DAB2FB7911461846FFF70CFF064B1B780E
:100C4C00DAB2064B1A70044AFB791370FB8918460A
:100C5C001037BD4680BD00BF2401002025010020B7
:100C6C00940000202801002080B485B000AF03461A
:100C7C000A46FB711346BB71394B1B78DBB2FA7910
:100C8C009A4211D1364B1B78DAB2364B1A70FA797C
:100C9C00354913465B001344DB000B4415331B78BA
:100CAC00DAB22F4B1A703EE0FA792F4913465B00EB
:100CBC001344DB000B4414331B78FB73FA792A4979
:100CCC0013465B001344DB000B4415331B78BB73DA
:100CDC00F979FA7B24480B465B000B44DB00034498
:100CEC0015331B78D8B2204913465B001344DB0044
:100CFC000B44153302461A70BB7B062B13D0F979C3
:100D0C00BA7B19480B465B000B44DB0003441433DD
:100D1C001B78D8B2144913465B001344DB000B4418
:100D2C00143302461A70FA790F4913465B001344C8
:100D3C00DB000B440C3301221A70094B1B78DBB21D
:100D4C00062B07D1BB79002B04D1084B4FF0FF3297
:100D5C001A6000BF00BF1437BD465DF8047B7047B6
:100D6C0024010020250100209400002028010020EF
:100D7C0080B582B000AF1A4B1B68B3F1FF3F26D091
:100D8C00FFF702FE7860164B1B687A689A4205D80A
:100D9C00134B1A687B68D31A7B600AE0114B1B88D3
:100DAC001A467B68D31A3B600D4B1B683A68134498
:100DBC007B600D4B1B781A467B6802FB03F37B6050
:100DCC000A4B1B781A467B68D3407B6001E00023FA
:100DDC007B607B689BB218460837BD4680BD00BF60
:100DEC00280100209E0100209D0100209C01002074
:100DFC0080B582B000AF0346FB80FB88002B08D186
:100E0C00FFF7C2FD0346244A1360032002F063FB84
:100E1C003EE0FB88012B03D8204B1B78012B02D022
:100E2C00FB88013BFB8000BF1D4B1B681B68DB680C
:100E3C0003F00403002BF7D0194B1B681B68DB680D
:100E4C00DAB2174B1B681B6862F49062DA60154BC0
:100E5C004FF40022DA60032002F04BFB124B5B696B
:100E6C001B0C1B04FA88104913434B61FFF78CFDD4
:100E7C000346094A13600A4B1B681B689A68084BA7
:100E8C001B681B6842F480629A60AFF3008000BF5D
:100E9C000837BD4680BD00BF280100209C01002002
:100EAC0098010020000800580028004080B584B04C
:100EBC0000AF474B9B6803F48063B3F5806F08D198
:100ECC0000BF444B1B681B68DB6803F00403002B5A
:100EDC00F7D1404B1B681B689A683E4B1B681B681C
:100EEC0022F480629A603C4B1B78FB73FA7B3B4983
:100EFC0013465B001344DB000B4408331B68BB60D8
:100F0C00FFF736FF0346FB80FB88BA689A4205D28E
:100F1C000023BB81324B01221A704DE0FB88314A11
:100F2C00128892B213441A46BB68934206D92D4BD1
:100F3C001B88BB812A4B00221A703DE0BB689AB219
:100F4C00FB88D31ABB81264B01221A7034E0FA7B42
:100F5C00224913465B001344DB000B4408331A6828
:100F6C00FB889A420AD2FA7B1C4913465B00134455
:100F7C00DB000B44083300221A6013E0FA7B17499C
:100F8C0013465B001344DB000B4408331968FB88E1
:100F9C00FA7BC91A114813465B001344DB00034467
:100FAC0008331960FA7B0D4913465B001344DB00D0
:100FBC000B4415331B78FB73FB7B062BC7D1BB890A
:100FCC001846FFF715FF00BF1037BD4680BD00BFA8
:100FDC0000280040980100202401002094000020EB
:100FEC002C010020A001002080B58AB000AFEFF3E7
:100FFC0010837B617B697B6272B600BF5F4B1B68A1
:10100C001B68CA225A625D4B1B681B6853225A62CA
:10101C005A4B1B681B689A68584B1B681B6822F458
:10102C0080629A60564B1B7887F8233097F8232000
:10103C00544913465B001344DB000B440C331B7800
:10104C00DBB2022B72D197F823204E4913465B007A
:10105C001344DB000B441B68FB6197F823204949C0
:10106C0013465B001344DB000B4410331B68BB615D
:10107C00454B1B78DBB2002B50D097F8232041490D
:10108C0013465B001344DB000B440D331B78DBB2BF
:10109C00012B26D197F8233001211846FFF7E4FDE8
:1010AC007B6A3B613B6983F3108800BF97F8232070
:1010BC00344913465B001344DB000B4404331A68B9
:1010CC0097F823301146184600F0D4F92B4B1B68C7
:1010DC001B68CA225A62294B1B681B6853225A622E
:1010EC0014E07B6AFB60FB6883F3108800BF97F801
:1010FC002330184600F032F9204B1B681B68CA22BB
:10110C005A621E4B1B681B6853225A6297F8233095
:10111C00FA691946B86900F035FA25E0FFF7C6FE02
:10112C007B6ABB60BB6883F310881DE000BF134B68
:10113C001B681B68DB6803F00403002BF7D00F4B14
:10114C001B681B68DB68DAB20C4B1B681B6862F40B
:10115C009062DA600D4B4FF40022DA607B6A7B60A0
:10116C007B6883F3108800BF044B1B681B68FF224D
:10117C005A6200BF2837BD4680BD00BF98010020D1
:10118C0024010020940000202C01002000080058AD
:10119C0080B588B000AF03463960FB71644A3B6888
:1011AC001360634B1B681B68CA225A62604B1B6836
:1011BC001B6853225A625F4B9B685E4A43F02003C4
:1011CC0093605C4B9B68DBB203F00703DBB2C3F1AB
:1011DC000403DAB2584B1A70564B1B6903F4FE0326
:1011EC004FF4FE023A613A6992FAA2F2FA60FA6896
:1011FC007A617A69002A01D1202203E07A69B2FA75
:10120C0082F2D2B2D340DBB20133DAB24B4B1A705A
:10121C00484B1B699BB2C3F30E039BB201339AB2CA
:10122C00474B1A80464B1B88013B444A127802FB01
:10123C0003F3A3F5A073404A1278D340BB61BB699A
:10124C004FF6FE72934204D93E4B4FF6FF721A8052
:10125C0003E0BB699AB23B4B1A804FF40020FFF7B6
:10126C0081FB4FF40020FFF769FBFB79002B43D186
:10127C00354B01221A70354B4FF0FF321A600023A8
:10128C00FB770CE0FA7F324913465B001344DB001A
:10129C000B440C3300221A70FB7F0133FB77FB7F6E
:1012AC00052BEFD92B4B06221A70214B1B681B68A0
:1012BC009A681F4B1B681B6822F480629A601C4B57
:1012CC001B681B68DB68DAB2194B1B681B6862F47D
:1012DC009062DA60204B4FF40022DA60032002F0B7
:1012EC0008F9134B1B681B689A68114B1B681B6829
:1012FC0042F480429A600AE00D4B1B681B68DB6865
:10130C0003F48063002B02D0032002F0E4F8084BB6
:10131C001B681B68FF225A6200220321032002F083
:10132C0098F8032002F0AFF800BF2037BD4680BD0F
:10133C0098010020002800409C0100209D01002005
:10134C009E010020A00100202C010020280100207B
:10135C0094000020240100200008005880B586B0BD
:10136C0000AF0346FB71EFF31083FB60FB687B61FE
:10137C0072B600BF032002F094F8384B1B681B6850
:10138C00CA225A62354B1B681B6853225A62FA797F
:10139C00334913465B001344DB000B440C331B78BE
:1013AC00DBB2022B48D1FB7900211846FFF75CFC1D
:1013BC002C4B1B78FB74FB7C062B35D12A4B9B6882
:1013CC0003F48063B3F5806F08D100BF234B1B6817
:1013DC001B68DB6803F00403002BF7D11F4B1B6861
:1013EC001B689A681D4B1B681B6822F480629A600C
:1013FC0000BF1A4B1B681B68DB6803F00403002B4F
:10140C00F7D0164B1B681B68DB68DAB2134B1B68F2
:10141C001B6862F49062DA60144B4FF40022DA60BD
:10142C00032002F066F807E0114B1B78DBB2FA7C64
:10143C009A4201D0FFF73AFD084B1B681B68FF224C
:10144C005A62032002F01FF87B69BB60BB6883F310
:10145C00108800BF00BF1837BD4680BD9801002022
:10146C0094000020240100200028004000080058AF
:10147C002501002080B586B000AF03463960FB71B2
:10148C00FA793C4913465B001344DB000B440C33E4
:10149C001B78DBB2022B03D1FB791846FFF75EFFFA
:1014AC00EFF31083FB60FB687B6172B600BF032017
:1014BC0001F0F7FF304B1B681B68CA225A622E4B97
:1014CC001B681B6853225A62FA792A4913465B003F
:1014DC001344DB000B440C3302221A70FA792549B1
:1014EC0013465B001344DB000B4408333A681A6064
:1014FC00FA79204913465B001344DB000B44043398
:10150C003A681A60FB791846FFF704FB03467B82A6
:10151C001A4B1B787B741A4B1B78DBB27A7C9A4281
:10152C0002D0FFF7C3FC13E0FA79124913465B00B3
:10153C001344DB000B44083319687B8AFA79C91A07
:10154C000C4813465B001344DB000344083319605A
:10155C00094B1B681B68FF225A62032001F093FFA2
:10156C007B69BB60BB6883F3108800BF00BF183772
:10157C00BD4680BD9400002098010020240100206D
:10158C002501002080B584B000AFF8600B467A606E
:10159C00FB727B68984700BF1037BD4680BD0000CA
:1015AC0080B586B000AFB9607B600346FB73134611
:1015BC00BB810023FB750023BB75FB7B002B0ED17D
:1015CC00174A7B681360174B174A1A60BB891A4677
:1015DC00B968144804F01EFE0346FB7500E000BF1A
:1015EC00FB7D032B16D801A252F823F00916000834
:1015FC000F160008151600081B1600080023BB75F3
:10160C0009E00123BB7506E00223BB7503E003234D
:10161C00BB7500E000BFBB7D18461837BD4680BDCA
:10162C000C1300203C1400200038014080B582B01F
:10163C0000AF78607B681B681A46094B9A4207D149
:10164C00084B1B68002B05D0064B1B68984701E024
:10165C0000BF00E000BF00BF0837BD4680BD00BF23
:10166C00003801400C13002080B483B000AF7860C8
:10167C00074BD3F880207B68DB4305491340C1F846
:10168C00803000BF0C37BD465DF8047B704700BF4F
:10169C000008005880B483B000AF7860074BD3F8D3
:1016AC0090207B68DB4305491340C1F8903000BFA4
:1016BC000C37BD465DF8047B704700BF000800582E
:1016CC0080B483B000AF78604FF0B0430A4AC3F8DF
:1016DC009C204FF0B043D3F89C3023F47C527B68B1
:1016EC001B024FF0B0411343C1F89C3000BF0C37C4
:1016FC00BD465DF8047B7047FECAFECA80B483B059
:10170C0000AF78604FF0B043D3F8903023F018025C
:10171C004FF0B0417B681343C1F8903000BF0C37D9
:10172C00BD465DF8047B704780B400AF4FF0B0430A
:10173C00D3F890304FF0B04243F48033C2F890307D
:10174C0000BFBD465DF8047B704780B400AF4FF01E
:10175C00B043D3F890304FF0B04223F48033C2F84A
:10176C00903000BFBD465DF8047B704780B400AF7D
:10177C004FF0B043D3F8943003F08063B3F1806F33
:10178C0001D1012300E000231846BD465DF8047B1F
:10179C00704780B400AF4FF0B043D3F8943003F0EF
:1017AC008053B3F1805F01D1012300E00023184680
:1017BC00BD465DF8047B704780B485B000AF78609F
:1017CC004FF0B0439A6C4FF0B0417B6813438B647D
:1017DC004FF0B0439A6C7B681340FB60FB6800BF12
:1017EC001437BD465DF8047B704780B485B000AFFC
:1017FC0078604FF0B043DA6C4FF0B0417B68134324
:10180C00CB644FF0B043DA6C7B681340FB60FB6831
:10181C0000BF1437BD465DF8047B704780B485B0BB
:10182C0000AF78604FF0B0431A6D4FF0B0417B6859
:10183C0013430B654FF0B0431A6D7B681340FB608C
:10184C00FB6800BF1437BD465DF8047B704780B45D
:10185C0083B000AF786039607B685A683B681B04C2
:10186C001A437B685A6000BF0C37BD465DF8047B99
:10187C00704780B483B000AF786039607B685A6879
:10188C003B681A437B685A6000BF0C37BD465DF855
:10189C00047B704780B483B000AF786039607B689C
:1018AC005A693B681B041A437B685A6100BF0C37AA
:1018BC00BD465DF8047B704780B483B000AF7860A0
:1018CC0039607B685A693B681A437B685A6100BF70
:1018DC000C37BD465DF8047B704780B483B000AF15
:1018EC00786039607B683A689A6000BF0C37BD46F7
:1018FC005DF8047B704780B483B000AF78603960CA
:10190C007B683A689A6100BF0C37BD465DF8047B72
:10191C007047000080B400AF054B1B69044A23F0EC
:10192C000403136100BFBD465DF8047B704700BF24
:10193C0000ED00E080B483B000AF78607B68FF22DC
:10194C005A6200BF0C37BD465DF8047B704780B40B
:10195C0083B000AF78607B68CA225A627B685322DE
:10196C005A6200BF0C37BD465DF8047B704780B4EB
:10197C0083B000AF786039607B689B6823F0070206
:10198C003B681A437B689A6000BF0C37BD465DF814
:10199C00047B704780B500AF104B4FF400421A61C6
:1019AC0001F07EFB00F07FF900F069F900F018F807
:1019BC0000F096F800F05CF900F0B7F900F04BF984
:1019CC0000F02CF900F0EEF800F0F4F8FEF7F0FE61
:1019DC004FF0FF3006F0F8FFFAE700BF0040005868
:1019EC0080B5AEB000AF07F1700348220021184655
:1019FC0007F0FEFE07F1540300221A605A609A6049
:101A0C00DA601A615A619A613B1D50220021184616
:101A1C0007F0EEFE02F082FC0020FFF76FFE2F4B6A
:101A2C001B6823F4C0632D4A43F4007313602B4BE3
:101A3C001B6803F4C0633B603B6807233B674FF4B0
:101A4C0080337B670123BB674FF48073FB674023B4
:101A5C00C7F880300023C7F89C3007F17003184694
:101A6C0002F0F0FF0346002B01D000F08FF96F233A
:101A7C007B650223BB650023FB6500233B660023CB
:101A8C007B660023BB660023FB6607F15403012130
:101A9C00184603F063FB0346002B01D000F076F9E7
:101AAC0043F603037B600023FB6100233B624FF48E
:101ABC0080737B644FF48043BB640223FB6410236C
:101ACC003B653B1D184603F08AFF0346002B01D0F3
:101ADC0000F05CF900BFB837BD4680BD000400586B
:101AEC0080B500AF064B074A1A60054802F090FB20
:101AFC000346002B01D000F049F900BF80BD00BFA8
:101B0C0010130020000C005880B500AF234B244A62
:101B1C001A60224B4FF4E1325A60204B00229A603B
:101B2C001E4B0022DA601D4B00221A611B4B0C224B
:101B3C005A611A4B00229A61184B4FF40042DA6139
:101B4C00164B00221A62154B00225A62134B0022CC
:101B5C009A62124804F00EFB0346002B01D000F0F1
:101B6C0015F900210D4805F0EBFA0346002B01D0C6
:101B7C0000F00CF90021094805F020FB0346002B6E
:101B8C0001D000F003F9054805F0A1FA0346002B3B
:101B9C0001D000F0FBF800BF80BD00BF3C1400205A
:101BAC000038014080B400AF00BFBD465DF8047B37
:101BBC007047000080B500AF164B174A1A60154BE2
:101BCC0000225A60134B0F229A60124B47F6FF7299
:101BDC00DA60104B00221A610E4B00229A610D4BF9
:101BEC000022DA610B4B00225A610A4804F07EF99C
:101BFC000346002B01D000F0C9F80748FFF7A7FEF9
:101C0C0000210548FFF7B3FE0348FFF793FE00BF22
:101C1C0080BD00BFCC1400200028004080B500AF70
:101C2C000420FFF7C9FD0120FFF7C6FD0220FFF7D6
:101C3C00C3FD00220F210E2001F00BFC0E2001F041
:101C4C0022FC00220F213A2001F003FC3A2001F083
:101C5C001AFC00BF80BD80B500AF0420FFF7C5FDA6
:101C6C000120FFF7C2FD0220FFF7BFFD00BF80BDC2
:101C7C0080B400AF00BFBD465DF8047B704780B5F3
:101C8C0082B000AF002006F035FE78607B68002B38
:101C9C0005D07B689B791846FFF712FD00BF00BF8B
:101CAC000837BD4680BD80B500AF00F027F800F0C6
:101CBC0003F800BF80BD000080B500AF4FF480106A
:101CCC00FFF7ACFD3F210C48FFF707FE3F210A4808
:101CDC00FFF711FE3F210848FFF7B9FD3F210648E9
:101CEC00FFF7D8FD3F210448FFF7C3FD3F21024811
:101CFC00FFF7E2FD00BF80BD000C005880B500AFBF
:101D0C00FFF734FD0346002B0DD0FFF742FD0346D1
:101D1C00002B08D102F002FB02F000FBFFF704FDE0
:101D2C00FFF713FD00BF00BF80BD80B500AF4FF0C3
:101D3C00FF30FFF799FC6FF05000FFF7ABFC00BFD2
:101D4C0080BD80B584B000AF786001F017FAB86040
:101D5C007B68FB60FB68B3F1FF3F0AD001F026FA09
:101D6C0003461A46FB681344FB6002E0FFF7D2FD02
:101D7C0030BF01F003FA0246BB68D31AFA689A42E4
:101D8C00F4D800BF00BF1037BD4680BD80B400AF93
:101D9C0000BFBD465DF8047B704780B483B000AFD4
:101DAC0078604FF0B043D3F8903023F440724FF08A
:101DBC00B0417B681343C1F8903000BF0C37BD466F
:101DCC005DF8047B704780B400AF4FF0B043D3F89C
:101DDC0090304FF0B04243F40043C2F8903000BF53
:101DEC00BD465DF8047B704780B485B000AF786069
:101DFC004FF0B043DA6C4FF0B0417B681343CB64C7
:101E0C004FF0B043DA6C7B681340FB60FB6800BF9B
:101E1C001437BD465DF8047B704780B485B000AFC5
:101E2C0078604FF0B0431A6D4FF0B0417B681343AC
:101E3C000B654FF0B0431A6D7B681340FB60FB6879
:101E4C0000BF1437BD465DF8047B704780B485B085
:101E5C0000AF78604FF0B0439A6D4FF0B0417B68A3
:101E6C0013438B654FF0B0439A6D7B681340FB6056
:101E7C00FB6800BF1437BD465DF8047B704780B427
:101E8C0085B000AF78604FF0B043DA6D4FF0B041E1
:101E9C007B681343CB654FF0B043DA6D7B6813401E
:101EAC00FB60FB6800BF1437BD465DF8047B7047D0
:101EBC0080B485B000AF78604FF0B0431A6E4FF02D
:101ECC00B0417B6813430B664FF0B0431A6E7B68CE
:101EDC001340FB60FB6800BF1437BD465DF8047B04
:101EEC00704780B500AF4FF40020FFF796FF00223B
:101EFC0000212E2001F0ADFA2E2001F0C4FA00BF13
:101F0C0080BD000080B582B000AF78607B681B6834
:101F1C000D4A934213D14FF48010FFF77EFF00223D
:101F2C0000212C2001F095FA2C2001F0ACFA0022B3
:101F3C0000212D2001F08DFA2D2001F0A4FA00BF14
:101F4C000837BD4680BD00BF000C005880B58CB072
:101F5C0000AF786007F11C0300221A605A609A6087
:101F6C00DA601A617B681B68594A93425ED1012082
:101F7C00FFF785FF0120FFF737FF0C23FB610223DE
:101F8C003B6200237B620323BB620823FB6207F1E5
:101F9C001C0319464FF0904001F08EFF4D4B4E4AFA
:101FAC001A604C4B11225A604A4B10229A60494BD2
:101FBC000022DA60474B80221A61464B00225A619C
:101FCC00444B00229A61434B0022DA61414B0022C0
:101FDC001A62404801F09CFA0346002B01D0FFF72F
:101FEC00D5FE4FF08853FB6000233B6100233B750B
:101FFC0000237B750123BB6107F10C03194635489F
:10200C0001F0B8FD0346002B01D0FFF7BFFE7B6843
:10201C00304A9A672F4A7B68936200220021252060
:10202C0001F017FA252001F02EFA4CE07B681B68B2
:10203C002A4A934247D14FF48040FFF739FF0220E0
:10204C00FFF7D2FEC023FB6102233B6201237B62BC
:10205C000323BB620723FB6207F11C0319462048CC
:10206C0001F02AFF1F4B204A1A601E4B0F225A60A8
:10207C001C4B10229A601B4B0022DA60194B8022F9
:10208C001A61184B00225A61164B00229A61154BAB
:10209C000022DA61134B00221A62124801F038FA5E
:1020AC000346002B01D0FFF771FE7B680D4A9A673F
:1020BC000C4A7B68936200220021242001F0C9F9AC
:1020CC00242001F0E0F900BF3037BD4680BD00BFD1
:1020DC0000800040F0140020440002400038014011
:1020EC0000040048DC1300204404024080B582B098
:1020FC0000AF78607B681B680B4A934210D102F0EA
:10210C000DF902F00BF94FF48070FFF746FEFFF764
:10211C005AFE4FF48060FFF799FE786803F0D4FF05
:10212C0000BF0837BD4680BD0028004080B400AF1A
:10213C0000BFBD465DF8047B704780B400AFFEE77E
:10214C0080B400AFFEE780B400AFFEE780B400AF10
:10215C00FEE780B400AF00BFBD465DF8047B70475E
:10216C0080B400AF00BFBD465DF8047B704780B4FF
:10217C0000AF00BFBD465DF8047B704780B500AF73
:10218C0000F0E8FF00BF80BD80B500AF024801F051
:10219C00A0FB00BF80BD00BFF014002080B500AFD5
:1021AC00024804F0B7F800BF80BD00BF3C1400200B
:1021BC0080B500AF024804F0ADF800BF80BD00BF91
:1021CC004C13002080B500AF00F0C0FC00BF80BDF8
:1021DC0080B500AF00F0F2FC00BF80BD80B500AF51
:1021EC0001F0F2FF00BF80BD80B500AF024801F0E6
:1021FC0070FB00BF80BD00BFDC13002080B400AFBB
:10220C0000BFBD465DF8047B704780B400AF00BFD3
:10221C00BD465DF8047B704780B500AFFEF7E4FE69
:10222C0000BF80BD80B586B000AFF860B9607A6041
:10223C0000237B610AE0AFF300800146BB685A1CA7
:10224C00BA60CAB21A707B6901337B617A697B68A8
:10225C009A42F0DB7B6818461837BD4680BD80B4C7
:10226C0083B000AF78604FF0FF3318460C37BD4693
:10227C005DF8047B704780B483B000AF7860396040
:10228C003B684FF400525A60002318460C37BD4689
:10229C005DF8047B704780B483B000AF7860012395
:1022AC0018460C37BD465DF8047B704780B485B08A
:1022BC0000AFF860B9607A60002318461437BD4649
:1022CC005DF8047B7047000080B584B000AF786087
:1022DC00114B1B68002B02D10F4B104A1A600E4B8E
:1022EC001B68FB600C4B1A687B6813446A4693426C
:1022FC0007D907F045FA03460C221A604FF0FF335A
:10230C0006E0054B1A687B681344034A1360FB68AC
:10231C0018461037BD4680BDA4010020681500206A
:10232C0080B400AFBFF34F8F00BF064BDB6803F4E4
:10233C00E0620449044B1343CB60BFF34F8F00BFE3
:10234C0000BFFDE700ED00E00400FA0580B400AF2B
:10235C00034B1B681846BD465DF8047B704700BFF5
:10236C008075FF1F80B400AF034B1B68DBB21846AF
:10237C00BD465DF8047B70478475FF1F80B400AFC9
:10238C00034B1B681B0A1846BD465DF8047B70475F
:10239C008475FF1FB0B58CB000AF184B3C461D4682
:1023AC000FCD0FC40FCD0FC495E80F0084E80F00BC
:1023BC0000F060F80121022006F0D6FA104A002144
:1023CC00022006F0E5FB3B46184605F031FD0346BE
:1023DC00002B01D0FFF7DAFC00F062F805F002FFE9
:1023EC00084A0021012006F0D3FB074807F076FAD3
:1023FC0000F07AFA00BF3037BD46B0BDE0A100084E
:10240C00097B000899250008CCA1000880B487B08E
:10241C0000AF78607B6801337B617B691B78FF2B95
:10242C000ED0FF2B19DC052B19D03E2B00D014E05D
:10243C007B690233FB60FB681B78012B00BF11E04A
:10244C007B6902333B613B691B889BB21A4640F2A5
:10245C0007439A4205D100BF03E000BF02E000BF72
:10246C0000E000BF012318461C37BD465DF8047B15
:10247C007047000080B582B000AF064B3B60064B46
:10248C007B603B461946054805F01CFB00BF08372E
:10249C00BD4680BD2800032001270008C92600087E
:1024AC00B0B58AB002AF00233B8005F08EFA00F085
:1024BC009FF8F861FA690621002005F0C6F94EF67E
:1024CC006E53BB60FFF742FF03467B603B1D1A4611
:1024DC0006212E2005F0B9F9274A1021182005F005
:1024EC00B4F9264A1021082005F0AFF91821012073
:1024FC0005F014FA05F0FDF80023FB76FB7E43F0A3
:10250C000103FB76FB7E002B24D01D4B7B6107F176
:10251C001202F87E07F10E03019307F110030093EA
:10252C0013460722002104F0B3FF7C8A3D8A7869A8
:10253C00FDF71EFE0346DAB27B69009313460022B8
:10254C002946204605F0FAF80346002B02D00D4828
:10255C0007F0C4F9788AF9893B46009302230022DC
:10256C0005F0ECF80346002B02D0074807F0B6F94B
:10257C0000BF2037BD46B0BDD0A30008E0A30008C3
:10258C0010A2000818A2000848A2000880B584B068
:10259C0000AF00233B60134B1B78002B1BD0022396
:1025AC007B60104B1B78BB600E4B1B78072B02D14A
:1025BC000223FB6001E00123FB6001F01BFB0A4BD3
:1025CC0048F211021A613A463B1D1146184601F0B9
:1025DC00AFFB01F031FB4FF00053044A1A60FFF7D8
:1025EC009FFE00BFAE010020004000580106010014
:1025FC0080B586B000AFFFF7A9FE38613B69B3F137
:10260C00FF3F23D0FFF7BAFEB860FFF7ABFE786050
:10261C003B69DAB2164B1A703B691B0ADAB2144BDF
:10262C005A707B68DAB2124B9A70BB68DAB2104BF4
:10263C00DA70BB681B0ADAB20D4B1A71BB681B0C43
:10264C00DAB20B4B5A710A4B7B610BE0002006F09F
:10265C0051F9F860FB68002B02D0FB687B6101E04C
:10266C00044B7B617B6918461837BD4680BD00BFA3
:10267C00A8010020C8A3000880B582B000AF786024
:10268C000021022006F0A6FA00BF0837BD4680BD27
:10269C0080B582B000AF7860012006F007FB00BF68
:1026AC000837BD4680BD80B582B000AF7860012090
:1026BC0006F01CFB00BF0837BD4680BD80B584B05A
:1026CC0000AF78607B68FB60FB685B68083318467A
:1026DC0005F0BEFD0346FB72FB7A002B03D0FB68B2
:1026EC0001221A7002E0FB6800221A7000BF10373A
:1026FC00BD4680BD80B584B000AF0346FB71FB794D
:10270C00002B02D0012B06D00BE00323FB60F868F2
:10271C0006F08CFA05E00323FB60F86806F0A6FAD5
:10272C0000BF00BF1037BD4680BD000080B594B01F
:10273C0008AF7860002387F82F307B681B881B015B
:10274C00674A82FB03129210DB17D31ABB85002158
:10275C00002005F05EF9BA8DB98D00230693002395
:10276C000593002304930023039300230293002377
:10277C000193002300930023032004F0ABFD0346D8
:10278C0087F82F3097F82F30002B02D097F82F3086
:10279C00A1E00A2004F063FF034687F82F3097F876
:1027AC002F30002B02D097F82F3094E01A233B7473
:1027BC00FF237B744C23BB740023FB7402233B75F7
:1027CC0015237B757B685B681B78BB757B685B68C6
:1027DC005B78FB757B685B689B783B767B685B689A
:1027EC00DB787B767B685B681B79BB767B685B6888
:1027FC005B79FB767B685B689B793B777B685B6876
:10280C00DB797B777B685B681B7ABB777B685B6863
:10281C005B7AFB777B685B689B7A87F820307B68F8
:10282C005B68DB7A87F821307B685B681B7B87F8F9
:10283C0022307B685B685B7B87F823307B685B6846
:10284C009B7B87F824307B685B68DB7B87F82530C3
:10285C007B689B681B7887F826307B689B685B7865
:10286C0087F827307B68DB681B7887F828307B6813
:10287C00DB685B7887F829307B681B7C87F82A300B
:10288C00184A07F10C031268114619800233120C16
:10289C001A7007F1100319461B2004F084FE03463E
:1028AC0087F82F3097F82F30002B02D097F82F3065
:1028BC0011E007F10C031946032004F074FE0346E3
:1028CC0087F82F3097F82F30002B02D097F82F3045
:1028DC0001E097F82F3018463037BD4680BD00BF59
:1028EC006766666678A2000890B58DB000AF114B94
:1028FC0007F120040FCB84E80F004FF48073BB83E7
:10290C004FF480733B834FF47A73BB8007F1200341
:10291C00BB6007F11C03FB6007F118033B61C1238B
:10292C003B753B1D1846FFF701FF00BF3437BD4612
:10293C0090BD00BF7CA2000880B400AF054BDB68E3
:10294C00044A43F40043D36000BFBD465DF8047BEA
:10295C00704700BF0004005880B483B000AF7860AB
:10296C00064BD3F8D42005497B681343C1F8D43007
:10297C0000BF0C37BD465DF8047B7047000800585B
:10298C0080B483B000AF7860054B1A6A04497B6849
:10299C0013430B6200BF0C37BD465DF8047B7047D8
:1029AC000008005880B485B000AF78604FF0B04399
:1029BC001A6D4FF0B0417B6813430B654FF0B04379
:1029CC001A6D7B681340FB60FB6800BF1437BD4673
:1029DC005DF8047B704780B485B000AF78604FF031
:1029EC00B043D3F850214FF0B0417B681343C1F88A
:1029FC0050314FF0B043D3F850217B681340FB604B
:102A0C00FB6800BF1437BD465DF8047B704780B48B
:102A1C0083B000AF78607B681B6843F480327B68BE
:102A2C001A6000BF0C37BD465DF8047B704780B45C
:102A3C0083B000AF78607B681B6843F001027B6851
:102A4C001A6000BF0C37BD465DF8047B704780B43C
:102A5C0083B000AF786039607B685A683B681B04B0
:102A6C00DB431A407B685A6000BF0C37BD465DF8EB
:102A7C00047B704780B483B000AF786039607B68AA
:102A8C005A683B681B041A437B685A6000BF0C37BA
:102A9C00BD465DF8047B704780B483B000AF7860AE
:102AAC0039607B685A683B68DB431A407B685A6024
:102ABC0000BF0C37BD465DF8047B704780B483B013
:102ACC0000AF786039607B683A689A6000BF0C3759
:102ADC00BD465DF8047B704780B483B000AF78606E
:102AEC0039603B681A047B689A6000BF0C37BD469E
:102AFC005DF8047B704780B483B000AF78603960B8
:102B0C007B68DA683B6813403A689A4201D101232A
:102B1C0000E0002318460C37BD465DF8047B704777
:102B2C0080B483B000AF786039607B68DA693B6849
:102B3C0013403A689A4201D1012300E00023184661
:102B4C000C37BD465DF8047B7047000080B500AFC4
:102B5C0002211948FFF7E4FF0346002B09D0164B5E
:102B6C005B68DB4303F00203002B02D000F0EAF8B1
:102B7C001FE001211048FFF7D3FF0346002B08D0BC
:102B8C000D4B5B6803F00103002B02D100F09EF8A3
:102B9C000FE008210848FFF7C3FF0346002B09D0BC
:102BAC00054B5B68DB4303F00803002B02D000F0FD
:102BBC0015F900BF00BF80BD000C005880B500AFF8
:102BCC0002212248FFF797FF0346002B09D11F4B28
:102BDC005B68DB4303F40033002B02D000F0A6F853
:102BEC0031E002211948FFF786FF0346002B09D17B
:102BFC00164B5B68DB4303F40033002B02D000F070
:102C0C0095F820E008211148FFF775FF0346002BCB
:102C1C0009D10E4B5B68DB4303F40023002B02D07D
:102C2C0000F0BEF80FE020210848FFF764FF0346D0
:102C3C00002B09D1054B5B68DB4303F40013002B1D
:102C4C0002D000F04FF800BF00BF80BD000C005850
:102C5C0080B500AF4FF48010FFF7BDFE4FF400704D
:102C6C00FFF77AFE4FF40070FFF78AFE40BF20BFDB
:102C7C00FFF762FE00BF80BD80B500AF4FF480103F
:102C8C00FFF790FE0648FFF7D2FE0548FFF7BFFEA0
:102C9C002C2000F0F8FB2D2000F0F5FB00BF80BDD0
:102CAC00000C005880B500AF01210248FFF7F4FE7C
:102CBC0000BF80BD000C005880B500AF0121024858
:102CCC00FFF70AFF00BF80BD000C005880B500AFB5
:102CDC0005F0A2FB01210248FFF7F0FE00BF80BD0A
:102CEC00000C005880B500AF20210348FFF7C2FE4E
:102CFC0005F0C2FB00BF80BD000C005880B500AFD2
:102D0C0002210248FFF7C8FE00BF80BD000C00582E
:102D1C0080B500AF02210448FFF7DEFE0221024815
:102D2C00FFF795FE00BF80BD000C005880B500AFCA
:102D3C0002210348FFF79EFE05F0EEFB00BF80BDAD
:102D4C00000C005880B500AF05F0FCFB02210248D6
:102D5C00FFF7B4FE00BF80BD000C005880B582B0F8
:102D6C0000AF786008210C48FFF7C5FE0346002B26
:102D7C0007D00A4A7B68136008210748FFF767FEF3
:102D8C0006E07B68984708210348FFF7A5FE00BFC3
:102D9C000837BD4680BD00BF000C0058B0010020B4
:102DAC0080B500AF08210648FFF764FE054B1B6891
:102DBC00984708210248FFF78FFE00BF80BD00BF77
:102DCC00000C0058B001002080B500AF082102486B
:102DDC00FFF762FE00BF80BD000C005880B500AF4D
:102DEC0005F058FC08210248FFF768FE00BF80BDC3
:102DFC00000C005880B485B000AF78604FF0B04341
:102E0C00DA6C4FF0B0417B681343CB644FF0B043A6
:102E1C00DA6C7B681340FB60FB6800BF1437BD465F
:102E2C005DF8047B7047000080B588B000AF0346A6
:102E3C00FB7107F10C0300221A605A609A60DA6089
:102E4C001A610220FFF7D6FFFB79124A32F81330D1
:102E5C00FB6001233B6100237B610223BB61FB7997
:102E6C000D4A52F8233007F10C021146184601F0B6
:102E7C0023F8FB79084A52F82300FB79054A32F80B
:102E8C0013300022194601F087F900BF2037BD46E8
:102E9C0080BD00BFF0A300080400002080B582B004
:102EAC0000AF0346FB71FB79074A52F82300FB790C
:102EBC00064A32F813300122194601F06DF900BFB1
:102ECC000837BD4680BD00BF04000020F0A30008F9
:102EDC0080B588B000AF03460A46FB711346BB7140
:102EEC0007F10C0300221A605A609A60DA601A61CA
:102EFC00FB79002B03D10420FFF77CFF0CE0FB795E
:102F0C00012B03D10820FFF775FF05E0FB79022B9D
:102F1C0002D10820FFF76EFFBB79002B17D1FB798C
:102F2C00204A32F81330FB6000233B6101237B61A4
:102F3C000223BB61FB791C4A52F8233007F10C02C7
:102F4C001146184600F0B8FF0120FEF7FAFEBB79D7
:102F5C00012B22D1FB79134A32F81330FB60012389
:102F6C007B61124B3B61FB790F4A52F8233007F11E
:102F7C000C021146184600F09FFFFB790C4AD35CFB
:102F8C005BB200220F21184600F063FAFB79084A65
:102F9C00D35C5BB2184600F076FA00BF2037BD4612
:102FAC0080BD00BFF8A30008100000200000211015
:102FBC0000A4000880B400AF264B00229A60254B79
:102FCC00D3F88830234A43F47003C2F888304FF0AA
:102FDC00B0431B684FF0B04243F0010313604FF055
:102FEC00B0434FF4E0229A604FF0B0431A684FF0B0
:102FFC00B041194B13400B604FF0B043D3F89430F1
:10300C004FF0B04223F00503C2F894304FF0B043B8
:10301C00D3F898304FF0B04223F00103C2F8983047
:10302C004FF0B0430D4ADA604FF0B0430B4A1A61CF
:10303C004FF0B0431B684FF0B04223F48023136071
:10304C004FF0B04300229A6100BFBD465DF8047B8F
:10305C00704700BF00ED00E0FBFEF6FA0010042202
:10306C0080B400AF054B5B68044A43F00103536026
:10307C0000BFBD465DF8047B704700BF002004E034
:10308C0080B400AF054B5B68044A43F00203536005
:10309C0000BFBD465DF8047B704700BF002004E014
:1030AC0080B582B000AF0023FB710C4B1B680B4A40
:1030BC0043F480731360032000F0C0F9002000F08B
:1030CC000FF80346002B02D00123FB7101E0FEF741
:1030DC0008FFFB7918460837BD4680BD00400058F4
:1030EC0080B584B000AF78600023FB73174B1B785E
:1030FC00002B24D002F0DEF90246144B1B78194643
:10310C004FF47A73B3FBF1F3B2FBF3F3184600F010
:10311C00D6F90346002B0FD17B680F2B09D8002260
:10312C0079684FF0FF3000F094F9094A7B6813601E
:10313C0007E00123FB7304E00123FB7301E001238F
:10314C00FB73FB7B18461037BD4680BD2400002066
:10315C002000002080B400AF064B1B781A46064BAB
:10316C001B681344044A136000BFBD465DF8047B22
:10317C00704700BF240000205015002080B400AF21
:10318C00034B1B681846BD465DF8047B704700BFB7
:10319C005015002080B400AF034B1B681846BD4689
:1031AC005DF8047B704700BF2000002080B400AFA6
:1031BC00034B1B781846BD465DF8047B704700BF77
:1031CC002400002080B500AFFFF74AFF00BF80BD90
:1031DC0080B500AFFFF754FF00BF80BD80B485B051
:1031EC0000AF78607B6803F00703FB600C4BDB6877
:1031FC00BB60BA684FF6FF031340BB60FB681A0252
:10320C00BB68134343F0BF6343F40033BB60044A11
:10321C00BB68D36000BF1437BD465DF8047B7047B4
:10322C0000ED00E080B400AF044BDB681B0A03F038
:10323C0007031846BD465DF8047B704700ED00E0BF
:10324C0080B483B000AF0346FB7197F90730002BB5
:10325C000BDBFB7903F01F02074997F907305B0979
:10326C00012000FA02F241F8232000BF0C37BD46C2
:10327C005DF8047B704700BF00E100E080B483B0D0
:10328C0000AF0346FB7197F90730002B12DBFB797B
:10329C0003F01F020A4997F907305B09012000FA75
:1032AC0002F2203341F82320BFF34F8F00BFBFF34E
:1032BC006F8F00BF00BF0C37BD465DF8047B7047B5
:1032CC0000E100E080B483B000AF0346FB7197F9D6
:1032DC000730002B0CDBFB7903F01F02074997F931
:1032EC0007305B09012000FA02F2403341F8232039
:1032FC0000BF0C37BD465DF8047B704700E100E071
:10330C0080B483B000AF0346FB7197F90730002BF4
:10331C000CDBFB7903F01F02074997F907305B09B7
:10332C00012000FA02F2603341F8232000BF0C3771
:10333C00BD465DF8047B704700E100E080B483B0CB
:10334C0000AF03463960FB7197F90730002B0ADB9D
:10335C003B68DAB20C4997F907301201D2B20B4430
:10336C0083F800230AE03B68DAB20849FB7903F0E2
:10337C000F03043B1201D2B20B441A7600BF0C3778
:10338C00BD465DF8047B704700E100E000ED00E015
:10339C0080B489B000AFF860B9607A60FB6803F064
:1033AC000703FB61FB69C3F10703042B28BF04234C
:1033BC00BB61FB690433062B02D9FB69033B00E0BC
:1033CC0000237B614FF0FF32BB6902FA03F3DA434F
:1033DC00BB681A407B699A404FF0FF317B6901FA58
:1033EC0003F3D9437B680B40134318462437BD467F
:1033FC005DF8047B7047000080B582B000AF786048
:10340C007B68013BB3F1807F01D301230FE00A4AB3
:10341C007B68013B53600F214FF0FF30FFF78EFFAD
:10342C00054B00229A60044B07221A6000231846B1
:10343C000837BD4680BD00BF10E000E080B582B00B
:10344C0000AF78607868FFF7C9FE00BF0837BD464B
:10345C0080BD80B586B000AF0346B9607A60FB735F
:10346C00FFF7E0FE78617A68B9687869FFF790FF3A
:10347C00024697F90F3011461846FFF75FFF00BF61
:10348C001837BD4680BD80B582B000AF0346FB71D6
:10349C0097F907301846FFF7D3FE00BF0837BD4633
:1034AC0080BD80B582B000AF0346FB7197F9073041
:1034BC001846FFF7E3FE00BF0837BD4680BD80B558
:1034CC0082B000AF78607868FFF796FF0346184625
:1034DC000837BD4680BD80B582B000AF0346FB7196
:1034EC0097F907301846FFF7EDFE00BF0837BD46C9
:1034FC0080BD80B582B000AF0346FB7197F90730F1
:10350C001846FFF7FDFE00BF0837BD4680BD000022
:10351C0080B584B000AF78607B68002B01D10123AB
:10352C008EE07B681B681A46474B9A420FD87B6823
:10353C001B681A46454B1344454AA2FB03231B093F
:10354C009A007B685A647B68424A1A640EE07B6876
:10355C001B681A46404B13443D4AA2FB03231B092C
:10356C009A007B685A647B683C4A1A647B68022226
:10357C0083F825207B681B681B68FB60FB6823F4C1
:10358C00FF4323F07003FB607B689A687B68DB6801
:10359C001A437B681B691A437B685B691A437B6817
:1035AC009B691A437B68DB691A437B681B6A13436C
:1035BC00FA681343FB607B681B68FA681A607868CA
:1035CC0000F074FA7B689B68B3F5804F02D17B687E
:1035DC0000225A607B685A687B689B6C02F03F0241
:1035EC001A607B68DB6C7A68126D5A607B685B686A
:1035FC00002B10D07B685B68042B0CD8786800F02B
:10360C0093FA7B685B6D00221A607B689B6D7A680D
:10361C00D26D5A6008E07B6800225A657B680022F4
:10362C009A657B680022DA657B680022DA637B6826
:10363C00012283F825207B68002283F824200023B4
:10364C0018461037BD4680BD07040240F8FFFDBF89
:10365C00CDCCCCCC00000240F8FBFDBF00040240F6
:10366C0080B586B000AFF860B9607A603B6000232B
:10367C00FB75FB6893F82430012B01D1022366E023
:10368C00FB68012283F82420FB6893F82530DBB219
:10369C00012B55D1FB68022283F82520FB68002200
:1036AC00DA63FB681B681A68FB681B6822F001026E
:1036BC001A603B687A68B968F86800F0B9F9FB6879
:1036CC001B6B002B08D0FB681B681A68FB681B6817
:1036DC0042F00E021A600FE0FB681B681A68FB6868
:1036EC001B6822F004021A60FB681B681A68FB68EE
:1036FC001B6842F00A021A60FB689B6C1B6803F49F
:10370C008033002B07D0FB689B6C1A68FB689B6CA2
:10371C0042F480721A60FB685B6D002B07D0FB686B
:10372C005B6D1A68FB685B6D42F480721A60FB6813
:10373C001B681A68FB681B6842F001021A6005E0FE
:10374C00FB68002283F824200223FB75FB7D1846BE
:10375C001837BD4680BD80B483B000AF78607B68FD
:10376C00002B01D101234FE07B6893F82530DBB2AD
:10377C00022B08D07B680422DA637B68002283F872
:10378C002420012340E07B681B681A687B681B6857
:10379C0022F00E021A607B689B6C1A687B689B6C2B
:1037AC0022F480721A607B681B681A687B681B683D
:1037BC0022F001021A607B685B6C03F01C027B68D0
:1037CC001B6C012101FA02F25A607B68DB6C7A688F
:1037DC00126D5A607B685B6D002B0CD07B685B6D47
:1037EC001A687B685B6D22F480721A607B689B6D33
:1037FC007A68D26D5A607B68012283F825207B6839
:10380C00002283F82420002318460C37BD465DF8AF
:10381C00047B704780B584B000AF78600023FB73E5
:10382C007B6893F82530DBB2022B05D07B68042231
:10383C00DA630123FB7347E07B681B681A687B68BB
:10384C001B6822F00E021A607B681B681A687B6882
:10385C001B6822F001021A607B689B6C1A687B68FB
:10386C009B6C22F480721A607B685B6C03F01C0208
:10387C007B681B6C012101FA02F25A607B68DB6CDD
:10388C007A68126D5A607B685B6D002B0CD07B687C
:10389C005B6D1A687B685B6D22F480721A607B68C2
:1038AC009B6D7A68D26D5A607B68012283F8252063
:1038BC007B68002283F824207B689B6B002B03D051
:1038CC007B689B6B78689847FB7B18461037BD4626
:1038DC0080BD80B584B000AF78607B681B6C1B68C2
:1038EC00FB607B681B681B68BB607B685B6C03F0D0
:1038FC001C0304229A40FB681340002B26D0BB68A3
:10390C0003F00403002B21D07B681B681B6803F0B9
:10391C002003002B07D17B681B681A687B681B6827
:10392C0022F004021A607B685B6C03F01C027B685B
:10393C001B6C042101FA02F25A607B681B6B002B92
:10394C0071D07B681B6B786898476CE07B685B6C0C
:10395C0003F01C0302229A40FB681340002B2ED06C
:10396C00BB6803F00203002B29D07B681B681B6823
:10397C0003F02003002B0BD17B681B681A687B6853
:10398C001B6822F00A021A607B68012283F825204A
:10399C007B685B6C03F01C027B681B6C022101FAD8
:1039AC0002F25A607B68002283F824207B68DB6A71
:1039BC00002B38D07B68DB6A7868984733E07B68EB
:1039CC005B6C03F01C0308229A40FB681340002B2D
:1039DC002AD0BB6803F00803002B25D07B681B683A
:1039EC001A687B681B6822F00E021A607B685B6C9D
:1039FC0003F01C027B681B6C012101FA02F25A6075
:103A0C007B680122DA637B68012283F825207B68BE
:103A1C00002283F824207B685B6B002B04D07B682E
:103A2C005B6B7868984700BF00BF1037BD4680BD00
:103A3C0080B485B000AFF860B9607A603B60FB6819
:103A4C00DB6CFA68126D5A60FB685B6D002B04D05E
:103A5C00FB689B6DFA68D26D5A60FB685B6C03F077
:103A6C001C02FB681B6C012101FA02F25A60FB6814
:103A7C001B683A685A60FB689B68102B08D1FB687E
:103A8C001B687A689A60FB681B68BA68DA6007E0A2
:103A9C00FB681B68BA689A60FB681B687A68DA6016
:103AAC0000BF1437BD465DF8047B704780B485B009
:103ABC0000AF78607B681B681A46174B9A420AD88D
:103ACC007B685B6C9B089B0003F1804303F502331E
:103ADC007A68936407E07B685B6C9B089A000F4BD9
:103AEC0013447A6893647B681B68DBB2083B0C4A0E
:103AFC00A2FB03231B09FB607B680A4ADA64FB68A0
:103B0C0003F01F0301229A407B681A6500BF14372B
:103B1C00BD465DF8047B7047070402401C08024058
:103B2C00CDCCCCCC8008024080B485B000AF78609E
:103B3C007B685B6803F03F03FB60FA680B4B134434
:103B4C009B001A467B685A657B68094A9A65FB6834
:103B5C00013B03F0030301229A407B68DA6500BF46
:103B6C001437BD465DF8047B704700BF3F820010E0
:103B7C004009024080B483B000AF786039607B6844
:103B8C0093F82530DBB2012B2BD17B6893F82430D2
:103B9C00012B01D1022325E07B68012283F824202C
:103BAC007B689B6C1A68124B13403A6811683A6830
:103BBC00D268013AD20411433A68526811433A6808
:103BCC00127A120411433A68527A520211437A68FB
:103BDC00926C0B4313607B68002283F82420002333
:103BEC0000E0012318460C37BD465DF8047B704796
:103BFC00FFFD00E080B483B000AF0023FB710B4BE2
:103C0C005B69002B0BDA094B094A9A60074B094A8E
:103C1C009A60064B5B69002B01DA0123FB71FB797F
:103C2C0018460C37BD465DF8047B704700400058C1
:103C3C0023016745AB89EFCD80B483B000AF00237F
:103C4C00FB71094B5B69084A43F000435361064B17
:103C5C005B69002B01DB0123FB71FB7918460C37E8
:103C6C00BD465DF8047B70470040005880B584B0B9
:103C7C0000AF7860FFF782FAF86009E0FFF77EFA90
:103C8C000246FB68D31A7A689A4201D8032347E0AC
:103C9C00254B1B6903F48033B3F5803FEED0224BE8
:103CAC001B69BB60BB6803F00103002B02D01E4BE9
:103CBC0001221A61BA684CF2FA331340BB60BB683C
:103CCC0003F04043002B07D0174B9A69BB6803F0F5
:103CDC004043154913438B61BB6823F04043002BD1
:103CEC0004D0114ABB6823F040431361BB68002B1E
:103CFC000ED00E4ABB685360012311E0FFF73EFA69
:103D0C000246FB68D31A7A689A4201D8032307E06B
:103D1C00054B1B6903F48023B3F5802FEED00023F1
:103D2C0018461037BD4680BD00400058B401002035
:103D3C0080B584B000AF78603960244B1B78012BC0
:103D4C0001D102233DE0214B01221A701F4B0022AE
:103D5C005A604FF47A70FFF789FF0346FB73FB7BC5
:103D6C00002B2AD17B681B68022B24D13B684FF0B7
:103D7C00FF321A607B685B68BB6012E0B86800F0C9
:103D8C0027F84FF47A70FFF771FF0346FB73FB7B48
:103D9C00002B03D03B68BA681A600AE0BB68013399
:103DAC00BB607B685A687B689B681344BA689A420C
:103DBC00E4D300F06FF800F025F8044B00221A70E1
:103DCC00FB7B18461037BD4680BD00BFB4010020F8
:103DDC0080B483B000AF7860094B5B6923F4FF6259
:103DEC007B68DB001343064A43F4803343F0020341
:103DFC00536100BF0C37BD465DF8047B704700BFB4
:103E0C000040005880B400AF214B1B6803F40073D2
:103E1C00B3F5007F17D11E4B1B681D4A23F40073AA
:103E2C0013601B4B1B681A4A43F400631360184B56
:103E3C001B68174A23F400631360154B1B68144A64
:103E4C0043F400731360124B1B6803F48063B3F5E7
:103E5C00806F17D10E4B1B680D4A23F480631360DF
:103E6C000B4B1B680A4A43F480531360084B1B68C6
:103E7C00074A23F480531360054B1B68044A43F430
:103E8C008063136000BFBD465DF8047B704700BFC4
:103E9C000040005880B400AF064B5B69054A23F420
:103EAC00FF6323F00203536100BFBD465DF8047B42
:103EBC00704700BF0040005880B487B000AF7860F6
:103ECC00396000237B614CE13B681A6801217B69F6
:103EDC0001FA03F31340FB60FB68002B00F03E81FA
:103EEC003B685B68012B0BD03B685B68022B07D0EF
:103EFC003B685B68112B03D03B685B68122B30D19D
:103F0C007B689B683B617B695B00032202FA03F3CD
:103F1C00DB433A6913403B613B68DA687B695B00C1
:103F2C0002FA03F33A6913433B617B683A699A607E
:103F3C007B685B683B6101227B6902FA03F3DB431C
:103F4C003A6913403B613B685B681B0903F0010253
:103F5C007B6902FA03F33A6913433B617B683A6964
:103F6C005A607B68DB683B617B695B00032202FA69
:103F7C0003F3DB433A6913403B613B689A687B6906
:103F8C005B0002FA03F33A6913433B617B683A69BD
:103F9C00DA603B685B68022B03D03B685B68122BD2
:103FAC0023D17B69DA087B68083253F822303B61F5
:103FBC007B6903F007039B000F2202FA03F3DB4338
:103FCC003A6913403B613B681A697B6903F007034C
:103FDC009B0002FA03F33A6913433B617B69DA08ED
:103FEC007B680832396943F822107B681B683B6197
:103FFC007B695B00032202FA03F3DB433A6913404B
:10400C003B613B685B6803F003027B695B0002FA6F
:10401C0003F33A6913433B617B683A691A603B6866
:10402C005B6803F08053002B00F09880544A7B6946
:10403C009B08023352F823303B617B6903F0030386
:10404C009B000F2202FA03F3DB433A6913403B61F6
:10405C007B68B3F1904F19D07B684A4A934213D0D6
:10406C007B68494A93420DD07B68484A934207D0FB
:10407C007B68474A934201D1042308E0072306E0FA
:10408C00032304E0022302E0012300E000237A6909
:10409C0002F00302920093403A6913433B613849A2
:1040AC007B699B0802333A6941F82320394BD3F8DA
:1040BC0080303B61FB68DB433A6913403B613B68F2
:1040CC005B6803F48033002B03D03A69FB6813431D
:1040DC003B61304A3B69C2F880302E4BD3F88430B8
:1040EC003B61FB68DB433A6913403B613B685B68AF
:1040FC0003F40033002B03D03A69FB6813433B6194
:10410C00244A3B69C2F88430224B1B683B61FB6834
:10411C00DB433A6913403B613B685B6803F48013F3
:10412C00002B03D03A69FB6813433B61194A3B6986
:10413C001360184B5B683B61FB68DB433A691340C7
:10414C003B613B685B6803F40013002B03D03A69B6
:10415C00FB6813433B610F4A3B6953607B69013336
:10416C007B613B681A687B6922FA03F3002B7FF4AE
:10417C00ABAE00BF00BF1C37BD465DF8047B70477B
:10418C00000001400004004800080048000C0048F2
:10419C00001000480008005880B483B000AF78606D
:1041AC000B467B8013467B707B78002B03D07A8880
:1041BC007B689A6102E07A887B689A6200BF0C3750
:1041CC00BD465DF8047B704780B582B000AF0A4BEA
:1041DC00DB687B60084B1A687B68DB43064913403D
:1041EC000B60054A7B685360786800F007F800BFE5
:1041FC000837BD4680BD00BF0015005880B483B0A1
:10420C0000AF786000BF0C37BD465DF8047B70478B
:10421C0080B584B000AF78600023FB737B68002B03
:10422C001ED0134BBB607B6893F83830DBB2002B8D
:10423C0002D17868FDF766FEB86800F05BF8BB68E1
:10424C001B6843F00112BB681A60786800F02CF808
:10425C007B6800225A637B68012283F8382001E0D6
:10426C000123FB73FB7B18461037BD4680BD00BF96
:10427C00000C005880B485B000AFF860B9601346EC
:10428C00FB7100BF1437BD465DF8047B704780B4EA
:10429C0085B000AFF860B9601346FB7100BF1437EE
:1042AC00BD465DF8047B704780B485B000AF786084
:1042BC000023FB600FE07A68FB689B0013440B4AF9
:1042CC005A607A68FB6806339B001344084A5A60AC
:1042DC00FB680133FB60FB68052BECD900BF00BF0A
:1042EC001437BD465DF8047B704700BF814200085F
:1042FC009B42000880B483B000AF78607B680022DA
:10430C001A607B684FF03F125A607B683F229A60BC
:10431C0000BF0C37BD465DF8047B704780B400AF1E
:10432C00054B1B68044A43F48073136000BFBD4601
:10433C005DF8047B704700BF0004005880B400AFE8
:10434C00044B1B6803F4C0631846BD465DF8047B40
:10435C00704700BF0004005880B400AF4FF0B0436A
:10436C001B6803F48013B3F5801F01D1012300E017
:10437C0000231846BD465DF8047B704780B400AF3F
:10438C004FF0B0431B684FF0B04243F480331360DE
:10439C0000BFBD465DF8047B704780B400AF4FF0A2
:1043AC00B0431B684FF0B04223F48033136000BF5E
:1043BC00BD465DF8047B704780B400AF4FF0B0434E
:1043CC001B6803F40033B3F5003F01D1012300E077
:1043DC0000231846BD465DF8047B704780B400AFDF
:1043EC004FF0B0431B684FF0B04243F4807313603E
:1043FC0000BFBD465DF8047B704780B400AF4FF042
:10440C00B0431B684FF0B04223F48073136000BFBD
:10441C00BD465DF8047B704780B400AF4FF0B043ED
:10442C001B6803F48063B3F5806F01D1012300E0B6
:10443C0000231846BD465DF8047B704780B483B0FA
:10444C0000AF78604FF0B0435B6823F0FE427B68AE
:10445C001B064FF0B04113434B6000BF0C37BD46F9
:10446C005DF8047B704780B400AF4FF0B043D3F8D5
:10447C0098304FF0B04243F00103C2F8983000BFBF
:10448C00BD465DF8047B704780B400AF4FF0B0437D
:10449C00D3F898304FF0B04223F00103C2F89830B3
:1044AC0000BFBD465DF8047B704780B400AF4FF091
:1044BC00B043D3F8983003F00203022B01D101234F
:1044CC0000E000231846BD465DF8047B704780B4BD
:1044DC0000AF4FF0B043D3F890304FF0B04243F000
:1044EC000103C2F8903000BFBD465DF8047B7047F5
:1044FC0080B400AF4FF0B043D3F890304FF0B042DF
:10450C0023F00103C2F8903000BFBD465DF8047B78
:10451C00704780B400AF4FF0B043D3F890304FF0F9
:10452C00B04243F00403C2F8903000BFBD465DF8C2
:10453C00047B704780B400AF4FF0B043D3F8903099
:10454C004FF0B04223F00403C2F8903000BFBD46D8
:10455C005DF8047B704780B400AF4FF0B043D3F8E4
:10456C00903003F00203022B01D1012300E0002361
:10457C001846BD465DF8047B704780B400AF4FF021
:10458C00B043D3F894304FF0B04243F00103C2F87B
:10459C00943000BFBD465DF8047B704780B400AF1B
:1045AC004FF0B043D3F894304FF0B04223F00103F6
:1045BC00C2F8943000BFBD465DF8047B704780B4F0
:1045CC0000AF4FF0B043D3F8943003F00203022B4A
:1045DC0001D1012300E000231846BD465DF8047BA1
:1045EC00704780B400AF4FF0B043D3F894304FF025
:1045FC00B04243F00403C2F8943000BFBD465DF8EE
:10460C00047B704780B400AF4FF0B043D3F89430C4
:10461C004FF0B04223F00403C2F8943000BFBD4603
:10462C005DF8047B704780B400AF4FF0B043D3F813
:10463C00943003F00803082B01D1012300E0002380
:10464C001846BD465DF8047B704780B483B000AF5C
:10465C0078604FF0B043D3F8943023F470627B68E9
:10466C001B024FF0B0411343C1F8943000BF0C371C
:10467C00BD465DF8047B704780B400AF4FF0B0438B
:10468C001B684FF0B04243F00103136000BFBD46FE
:10469C005DF8047B704780B400AF4FF0B0431B68EB
:1046AC004FF0B04223F00103136000BFBD465DF82C
:1046BC00047B704780B400AF4FF0B0431B6803F02D
:1046CC000203022B01D1012300E000231846BD4652
:1046DC005DF8047B704780B483B000AF78604FF016
:1046EC00B0431B6823F0F0024FF0B0417B681343DA
:1046FC000B6000BF0C37BD465DF8047B704780B47F
:10470C0083B000AF4FF0B0431B6803F0F0037B6045
:10471C007B68B02B01D9B0237B607B6818460C37C3
:10472C00BD465DF8047B704780B483B000AF786001
:10473C004FF0B0435B6823F47F427B681B024FF061
:10474C00B04113434B6000BF0C37BD465DF8047B92
:10475C00704780B483B000AF78604FF0B0439B6873
:10476C0023F003024FF0B0417B6813438B6000BF12
:10477C000C37BD465DF8047B704780B400AF4FF03A
:10478C00B0439B6803F00C031846BD465DF8047BF0
:10479C00704780B483B000AF78604FF0B0439B6833
:1047AC0023F0F0024FF0B0417B6813438B6000BFE5
:1047BC000C37BD465DF8047B704780B483B000AF06
:1047CC0078604FF0B043D3F8083123F0F0024FF08B
:1047DC00B0417B681343C1F8083100BF0C37BD46AC
:1047EC005DF8047B704780B483B000AF78604FF005
:1047FC00B043D3F8083123F00F027B681B094FF04C
:10480C00B0411343C1F8083100BF0C37BD465DF809
:10481C00047B704780B483B000AF78604FF0B04336
:10482C009B6823F4E0624FF0B0417B6813438B60CC
:10483C0000BF0C37BD465DF8047B704780B483B075
:10484C0000AF78604FF0B0439B6823F460524FF098
:10485C00B0417B6813438B6000BF0C37BD465DF8DD
:10486C00047B704780B400AF4FF0B0439B6803F0FB
:10487C00F0031846BD465DF8047B704780B400AF6A
:10488C004FF0B043D3F808311B0103F0F003184686
:10489C00BD465DF8047B704780B400AF4FF0B04369
:1048AC009B6803F4E0631846BD465DF8047B7047D3
:1048BC0080B400AF4FF0B0439B6803F460531846CC
:1048CC00BD465DF8047B704780B400AF4FF0B04339
:1048DC001B684FF0B04243F08073136000BFBD46BD
:1048EC005DF8047B704780B400AF4FF0B0431B6899
:1048FC004FF0B04223F08073136000BFBD465DF8EB
:10490C00047B704780B400AF4FF0B0431B6803F0DA
:10491C000073B3F1007F01D1012300E0002318469E
:10492C00BD465DF8047B704780B400AF4FF0B043D8
:10493C00DB681B0A03F07F031846BD465DF8047B59
:10494C00704780B400AF4FF0B043DB6803F06043B6
:10495C001846BD465DF8047B704780B400AF4FF03D
:10496C00B043DB6803F070031846BD465DF8047B6A
:10497C00704780B400AF4FF0B043DB6803F0030323
:10498C001846BD465DF8047B704780B400AF4FF00D
:10499C00B0439B6803F48033B3F5803F01D101230E
:1049AC0000E000231846BD465DF8047B704780B4D8
:1049BC0000AF4FF0B043D3F8083103F40033B3F534
:1049CC00003F01D1012300E000231846BD465DF8ED
:1049DC00047B704780B400AF4FF0B043D3F808317C
:1049EC0003F48033B3F5803F01D1012300E00023B1
:1049FC001846BD465DF8047B704780B400AF4FF09D
:104A0C00B0439B6803F40033B3F5003F01D101239D
:104A1C0000E000231846BD465DF8047B704780B467
:104A2C0000AF4FF0B0439B6803F48023B3F5802FA5
:104A3C0001D1012300E000231846BD465DF8047B3C
:104A4C007047000090B58DB000AF78607B68002B8C
:104A5C0001D101237EE37B681B6803F02003002B4C
:104A6C0000F09280FFF789FEF862FFF782FFB862D0
:104A7C00FB6A002B05D0FB6A0C2B4CD1BB6A012BBB
:104A8C0049D1FFF717FE0346002B05D07B68DB6985
:104A9C00002B01D101235DE37B685C6AFFF72FFEDD
:104AAC0003469C4214D97B685B6A184600F042FDB1
:104ABC000346002B01D001234CE37B685B6A18464C
:104ACC00FFF709FE7B681B6A1846FFF72DFE13E003
:104ADC007B685B6A1846FFF7FEFD7B681B6A18460D
:104AEC00FFF722FE7B685B6A184600F023FD034645
:104AFC00002B01D001232DE300F0DCFC0346B34A6C
:104B0C001360B34B1B681846FEF7EAFA0346002BFA
:104B1C0039D001231EE37B68DB69002B1ED0FFF725
:104B2C00ABFDFEF72BFB786208E0FEF727FB024695
:104B3C007B6AD31A022B01D903230BE3FFF7BAFDCF
:104B4C000346002BF1D07B685B6A1846FFF7C3FD68
:104B5C007B681B6A1846FFF7E7FD15E0FFF79BFD26
:104B6C00FEF70CFB786208E0FEF708FB02467B6A56
:104B7C00D31A022B01D90323ECE2FFF79BFD03466A
:104B8C00002BF1D100E000BF7B681B6803F0010330
:104B9C00002B4ED0FFF7F1FD3862FFF7EAFEF8610B
:104BAC003B6A082B05D03B6A0C2B0DD1FB69032B00
:104BBC000AD1FFF701FC0346002B39D07B685B68F8
:104BCC00002B35D10123C5E27B685B68B3F5803FD0
:104BDC0002D1FFF7D3FB01E0FFF7DFFB7B685B68DB
:104BEC00002B12D0FEF7CAFA786208E0FEF7C6FA7C
:104BFC0002467B6AD31A642B01D90323AAE2FFF77E
:104C0C00DBFB0346002BF1D013E0FEF7B7FA78621A
:104C1C0008E0FEF7B3FA02467B6AD31A642B01D97B
:104C2C00032397E2FFF7C8FB0346002BF1D100E00A
:104C3C0000BF7B681B6803F00203002B51D0FFF709
:104C4C009CFDB861FFF795FE7861BB69042B05D01C
:104C5C00BB690C2B13D17B69022B10D1FFF7DCFB4A
:104C6C000346002B05D07B68DB68002B01D10123A8
:104C7C0070E27B681B691846FFF7E0FB31E07B684C
:104C8C00DB68002B19D0FFF7A9FBFEF777FA7862E7
:104C9C0008E0FEF773FA02467B6AD31A022B01D99D
:104CAC00032357E2FFF7B8FB0346002BF1D07B68D8
:104CBC001B691846FFF7C2FB13E0FFF79EFBFEF7DC
:104CCC005DFA786208E0FEF759FA02467B6AD31A5D
:104CDC00022B01D903233DE2FFF79EFB0346002B79
:104CEC00F1D17B681B6803F00803002B06D17B68AD
:104CFC001B6803F01003002B00F0A3807B685B693A
:104D0C00002B76D07B681B6803F01003002B46D079
:104D1C00FFF755FC0346002B13D1FFF72EFCFEF7D3
:104D2C002DFA786208E0FEF729FA02467B6AD31A5C
:104D3C00022B01D903230DE2FFF741FC0346002BA4
:104D4C00F1D0FFF74EFCFEF719FA786208E0FEF797
:104D5C0015FA02467B6AD31A032B01D90323F9E116
:104D6C00FFF761FC0346002BF1D07B689B6918466A
:104D7C00FFF76BFCFFF712FCFEF700FA786208E015
:104D8C00FEF7FCF902467B6AD31A022B01D90323E6
:104D9C00E0E1FFF714FC0346002BF1D151E0FFF7E3
:104DAC00ECFBFEF7EBF9786208E0FEF7E7F9024658
:104DBC007B6AD31A022B01D90323CBE1FFF7FFFB4C
:104DCC000346002BF1D0FFF71DFC0CE01C0000206B
:104DDC0020000020FEF7D2F902467B6AD31A032B7F
:104DEC0001D90323B6E1FFF71EFC0346002BF1D1DA
:104DFC0027E0FFF707FCFEF7C1F9786208E0FEF741
:104E0C00BDF902467B6AD31A032B01D90323A1E116
:104E1C00FFF709FC0346002BF1D1FFF7BFFBFEF7B0
:104E2C00ADF9786208E0FEF7A9F902467B6AD31A5D
:104E3C00022B01D903238DE1FFF7C1FB0346002BA5
:104E4C00F1D17B681B6803F00403002B5BD0B54BDE
:104E5C001B6803F48073002B14D1FFF75FFAFEF785
:104E6C008DF9786208E0FEF789F902467B6AD31A5D
:104E7C00022B01D903236DE1AA4B1B6803F4807349
:104E8C00002BF0D07B689B68012B02D1FFF71FFB36
:104E9C000CE07B689B68052B04D1FFF73AFBFFF70E
:104EAC0016FB03E0FFF724FBFFF744FB7B689B68D2
:104EBC00002B14D0FEF762F978620AE0FEF75EF977
:104ECC0002467B6AD31A41F28832934201D90323FA
:104EDC0040E1FFF740FB0346002BEFD013E0FEF759
:104EEC004DF978620AE0FEF749F902467B6AD31A5B
:104EFC0041F28832934201D903232BE1FFF72BFBBC
:104F0C000346002BEFD17B681B6803F04003002B9A
:104F1C002CD07B689B6A002B14D0FFF7A4FAFEF709
:104F2C002DF9786208E0FEF729F902467B6AD31A5C
:104F3C00022B01D903230DE1FFF7B7FA0346002B2F
:104F4C00F1D013E0FFF7A0FAFEF718F9786208E049
:104F5C00FEF714F902467B6AD31A022B01D90323FC
:104F6C00F8E0FFF7A2FA0346002BF1D17B68DB6A6D
:104F7C00002B00F0EE80FFF700FC38614FF0B043DF
:104F8C00DB68FB607B68DB6A022B40F0AF80FB6860
:104F9C0003F003027B681B6B9A4223D1FB6803F07E
:104FAC0070027B685B6B9A421CD1FB681B0A03F096
:104FBC007F027B689B6B9A4214D1FB6803F47812D6
:104FCC007B68DB6B9A420DD1FB6803F060627B68F7
:104FDC001B6C9A4206D1FB6803F060427B685B6CE9
:104FEC009A425DD03B690C2B58D04FF0B0431B68F4
:104FFC0003F08063002B01D00123ABE0FFF773FCBF
:10500C00FEF7BCF8786208E0FEF7B8F802467B6A57
:10501C00D31A022B01D903239CE04FF0B0431B6839
:10502C0003F00073002BEFD14FF0B043DA683E4B26
:10503C0013407A68116B7A68526B11437A68926BE1
:10504C00120211437A68D26B11437A68126C1143C5
:10505C007A68526C0A434FF0B0411343CB60FFF7B0
:10506C0033FC4FF0B043DB684FF0B04243F0805359
:10507C00D360FEF783F8786208E0FEF77FF802460B
:10508C007B6AD31A022B01D9032363E04FF0B043A0
:10509C001B6803F00073002BEFD05AE0012359E09A
:1050AC004FF0B0431B6803F00073002B51D1FFF796
:1050BC000BFC4FF0B043DB684FF0B04243F0805331
:1050CC00D360FEF75BF8786208E0FEF757F802460B
:1050DC007B6AD31A022B01D903233BE04FF0B04378
:1050EC001B6803F00073002BEFD032E03B690C2BF4
:1050FC002DD0FFF7F8FB4FF0B043DB684FF0B04218
:10510C0023F00303D3604FF0B043DB684FF0B042A1
:10511C0023F0885323F48033D360FEF72FF87862A2
:10512C000DE000BF000400588C80C111FEF726F87A
:10513C0002467B6AD31A022B01D903230AE04FF0F3
:10514C00B0431B6803F00073002BEFD101E0012387
:10515C0000E0002318463437BD4690BD80B584B0BE
:10516C0000AF786039607B68002B01D101232DE101
:10517C00984B1B6803F007033A689A421BD9954B6E
:10518C001B6823F0070293493B6813430B60FDF740
:10519C00F5FFF86008E0FDF7F1FF0246FB68D31A53
:1051AC00022B01D9032311E18A4B1B6803F007037F
:1051BC003A689A42EFD17B681B6803F00203002B1C
:1051CC0016D07B689B681846FFF7E3FAFDF7D6FF0D
:1051DC00F86008E0FDF7D2FF0246FB68D31A022BF9
:1051EC0001D90323F2E0FFF7D0FB0346002BF1D0EB
:1051FC007B681B6803F02003002B16D07B685B696F
:10520C001846FFF7DAFAFDF7B9FFF86008E0FDF78A
:10521C00B5FF0246FB68D31A022B01D90323D5E054
:10522C00FFF7C5FB0346002BF1D07B681B6803F02E
:10523C004003002B16D07B689B691846FFF7D3FA06
:10524C00FDF79CFFF86008E0FDF798FF0246FB684D
:10525C00D31A022B01D90323B8E0FFF7BBFB03469B
:10526C00002BF1D07B681B6803F00403002B16D0D5
:10527C007B68DB681846FFF7CDFAFDF77FFFF86017
:10528C0008E0FDF77BFF0246FB68D31A022B01D91D
:10529C0003239BE0FFF7B1FB0346002BF1D07B68A7
:1052AC001B6803F00803002B17D07B681B69DB001D
:1052BC001846FFF7C3FAFDF761FFF86008E0FDF749
:1052CC005DFF0246FB68D31A022B01D903237DE054
:1052DC00FFF7A5FB0346002BF1D07B681B6803F09E
:1052EC000103002B43D07B685B68022B06D1FFF7D0
:1052FC0063F80346002B1ED1012367E07B685B68D3
:10530C00032B06D1FFF7FEFA0346002B13D1012322
:10531C005CE07B685B68002B06D1FFF7CBF903469A
:10532C00002B08D1012351E0FFF776F80346002B40
:10533C0001D101234AE07B685B681846FFF709FA44
:10534C00FDF71CFFF8600AE0FDF718FF0246FB684A
:10535C00D31A41F28832934201D9032336E0FFF786
:10536C000CFA02467B685B689B009A42ECD1194BA5
:10537C001B6803F007033A689A421BD2154B1B6853
:10538C0023F0070213493B6813430B60FDF7F6FE4D
:10539C00F86008E0FDF7F2FE0246FB68D31A022B18
:1053AC0001D9032312E00B4B1B6803F007033A6887
:1053BC009A42EFD100F07EF80346074A1360FDF7DE
:1053CC00E9FE03461846FDF78BFE034618461037D8
:1053DC00BD4680BD004000581C00002090B585B033
:1053EC0000AFFFF7CAF978607B68002B0AD1FFF792
:1053FC0086F903461B0903F00F032B4A52F823309E
:10540C00FB604BE07B68042B02D1284BFB6045E032
:10541C007B68082B0AD1FEF79FFF0346012B02D1B4
:10542C00224BFB603AE0224BFB6037E0FFF7A1FA1E
:10543C0038603B68022B03D03B68032B03D00DE094
:10544C001A4BBB6015E0FEF787FF0346012B02D118
:10545C00164BBB600DE0164BBB600AE0FFF74FF933
:10546C0003461B0903F00F030F4A52F82330BB60AD
:10547C0000BFFFF759FA0246BB6803FB02F4FFF7C3
:10548C006CFA03461B090133B4FBF3F4FFF759FA2A
:10549C0003465B0F0133B4FBF3F3FB60FB68184668
:1054AC001437BD4690BD00BF64A400080024F4006E
:1054BC000048E80198B500AFFFF790FF0446FFF7EE
:1054CC00D1F903461B0903F00F03034A52F82330AA
:1054DC00B4FBF3F3184698BD04A4000898B500AFCC
:1054EC00FFF7E8FF0446FFF7D7F903461B0A03F062
:1054FC000703044A52F8233003F01F0324FA03F382
:10550C00184698BD44A4000898B500AFFFF7D2FF29
:10551C000446FFF7CDF90346DB0A03F00703044A00
:10552C0052F8233003F01F0324FA03F3184698BDF6
:10553C0044A4000890B585B000AF78607B68B02BB0
:10554C0003D9154BDB6AFB6007E07B681B0903F092
:10555C000F03114A52F82330FB60FFF78FF9034613
:10556C001B0903F00F030D4A52F82330FA68B2FB03
:10557C00F3F3BB60BB680A4AA2FB03239C0CFEF747
:10558C00DDFE03461946204600F00CF8034618468B
:10559C001437BD4690BD00BF64A4000804A40008E5
:1055AC0083DE1B4390B593B000AF78603960394B04
:1055BC0007F128040FCB84E80F00374A07F11C03CE
:1055CC0007CA83E80700354B07F10C040FCB84E8BE
:1055DC000F0000237B643B68B3F5007F1CD10023D4
:1055EC003B6415E03B6C9B0007F14802134453F8F5
:1055FC00203C7A689A4208D83B6C9B0007F1480221
:10560C00134453F83C3C7B6422E03B6C01333B6419
:10561C003B6C032BE6D91BE00023FB6315E0FB6B13
:10562C009B0007F14802134453F82C3C7A689A42C9
:10563C0008D8FB6B9B0007F14802134453F83C3C21
:10564C007B6405E0FB6B0133FB63FB6B022BE6D940
:10565C00134B1B6823F0070211497B6C13430B603F
:10566C00FDF78CFDB86308E0FDF788FD0246BB6BC7
:10567C00D31A022B01D9032307E0094B1B6803F053
:10568C0007037A6C9A42EFD1002318464C37BD467B
:10569C0090BD00BF8CA200089CA20008A8A2000824
:1056AC000040005880B400AF4FF0B043D3F89030B6
:1056BC0003F00103012B01D1012300E00023184664
:1056CC00BD465DF8047B704780B400AF4FF0B0432B
:1056DC00D3F8903003F00203022B01D1012300E038
:1056EC0000231846BD465DF8047B704780B483B038
:1056FC0000AF78604FF0B043D3F8943023F44042BD
:10570C004FF0B0417B681343C1F8943000BF0C37A5
:10571C00BD465DF8047B704780B483B000AF786001
:10572C004FF0B0435B6A23F003024FF0B0417B684B
:10573C0013434B6200BF0C37BD465DF8047B7047CA
:10574C0080B483B000AF78604FF0B0435B6A23F055
:10575C0030024FF0B0417B6813434B6200BF0C37F3
:10576C00BD465DF8047B704780B483B000AF7860B1
:10577C004FF0B043D3F8883023F003024FF0B04120
:10578C007B681343C1F8883000BF0C37BD465DF809
:10579C00047B704780B483B000AF78604FF0B043A7
:1057AC00D3F8883023F440624FF0B0417B68134348
:1057BC00C1F8883000BF0C37BD465DF8047B7047DC
:1057CC0080B483B000AF78604FF0B043D3F888203A
:1057DC007B681B0903F47F23DB431A407B681B01A6
:1057EC0003F47F234FF0B0411343C1F8883000BF5E
:1057FC000C37BD465DF8047B704780B483B000AFB6
:10580C0078604FF0B043D3F888207B681B0C1B04E6
:10581C00DB431A407B681B044FF0B0411343C1F8C3
:10582C00883000BF0C37BD465DF8047B704780B4F0
:10583C0083B000AF78604FF0B043D3F8883023F4D6
:10584C0040024FF0B0417B681343C1F8883000BF71
:10585C000C37BD465DF8047B704780B483B000AF55
:10586C0078604FF0B043D3F8883023F040424FF0CB
:10587C00B0417B681343C1F8883000BF0C37BD467C
:10588C005DF8047B704780B483B000AF78604FF054
:10589C00B043D3F8883023F040624FF0B0417B68BE
:1058AC001343C1F8883000BF0C37BD465DF8047B4C
:1058BC00704780B582B000AF78607868FFF7E3FF7F
:1058CC0000BF0837BD4680BD80B483B000AF7860A0
:1058DC004FF0B043D3F8883023F040524FF0B04132
:1058EC007B681343C1F8883000BF0C37BD465DF8A8
:1058FC00047B704780B483B000AF78604FF0B04346
:10590C00D3F8903023F440724FF0B0417B681343CE
:10591C00C1F8903000BF0C37BD465DF8047B704772
:10592C0080B400AF4FF0B043D3F8903003F4407321
:10593C001846BD465DF8047B704780B400AF4FF04D
:10594C00B043D3F890304FF0B04243F48033C2F8F8
:10595C00903000BFBD465DF8047B704780B400AF4B
:10596C004FF0B043D3F890304FF0B04223F4803373
:10597C00C2F8903000BFBD465DF8047B704780B420
:10598C0000AF4FF0B0431B684FF0B04243F0806360
:10599C00136000BFBD465DF8047B704780B400AF58
:1059AC004FF0B0431B684FF0B04223F0806313609C
:1059BC0000BFBD465DF8047B704780B400AF4FF06C
:1059CC00B0431B6803F00063B3F1006F01D10123F6
:1059DC0000E000231846BD465DF8047B704780B597
:1059EC0088B000AF78600023FB770023BB777B681F
:1059FC001B6803F04003002B34D07B681B6BB3F5A2
:105A0C00400F21D0B3F5400F1BD8B3F5000F1DD0BC
:105A1C00B3F5000F15D8002B0BD0B3F5800F10D1B8
:105A2C004FF0B043DB684FF0B04243F48033D360A7
:105A3C000DE07B680433184600F047F90346FB770A
:105A4C0005E00123FB7702E000BF00E000BFFB7F15
:105A5C00002B05D17B681B6B1846FFF7E8FE01E0B5
:105A6C00FB7FBB777B681B6803F40063002B46D07D
:105A7C00FFF756FFB8617B681B6CBA699A423CD041
:105A8C00FEF74CFCBB69002B05D17B681B6C1846E0
:105A9C00FFF730FF2EE04FF0B043D3F890307B612E
:105AAC00FFF74BFFFFF75AFF7B6923F440727B68CB
:105ABC001B6C13437B614FF0B0427B69C2F8903092
:105ACC00FFF7F0FD0346012B14D1FDF757FB3861AE
